:100000000C946B050C9493050C9493050C94930538
:100010000C9493050C9493050C9493050C94930500
:100020000C9493050C9493050C9493050C949305F0
:100030000C9493050C9493050C9493050C949305E0
:100040000C94631F0C9493050C94311F0C940B1F9C
:100050000C9493050C9493050C9493050C949305C0
:100060000C94AD1F0C949305CDCCCC3D0AD7233C0A
:1000700017B7D13877CC2B329595E6241FB14F0AAC
:100080000000803FCDCCCC3D6F12833A95BFD63374
:100090007D1D9026B3CE010C000020410000C84217
:1000A00000401C4620BCBE4CCA1B0E5AAEC59D74F7
:1000B000000103070F1F3F7F0080C0E0F0F8FCFE47
:1000C00000000000003E5B4F5B3E3E6B4F6B3E1CF2
:1000D0003E7C3E1C183C7E3C181C577D571C1C5E09
:1000E0007F5E1C00183C1800FFE7C3E7FF001824E0
:1000F0001800FFE7DBE7FF30483A060E262979298A
:1001000026407F050507407F05253F5A3CE73C5ABE
:100110007F3E1C1C08081C1C3E7F14227F22145F9B
:100120005F005F5F06097F017F006689956A6060F6
:1001300060606094A2FFA29408047E040810207EF0
:10014000201008082A1C08081C2A08081E10101075
:10015000100C1E0C1E0C30383E3830060E3E0E06BB
:10016000000000000000005F00000007000700140E
:100170007F147F14242A7F2A1223130864623649CD
:100180005620500008070300001C224100004122B5
:100190001C002A1C7F1C2A08083E080800807030BA
:1001A0000008080808080000606000201008040229
:1001B0003E5149453E00427F40007249494946212F
:1001C00041494D331814127F1027454545393C4AA3
:1001D00049493141211109073649494936464949BA
:1001E000291E000014000000403400000008142202
:1001F0004114141414140041221408020159090670
:100200003E415D594E7C1211127C7F494949363E70
:10021000414141227F4141413E7F494949417F0956
:100220000909013E414151737F0808087F00417F61
:1002300041002040413F017F081422417F4040405F
:10024000407F021C027F7F0408107F3E4141413EF7
:100250007F090909063E4151215E7F091929462679
:100260004949493203017F01033F4040403F1F207D
:1002700040201F3F4038403F631408146303047854
:1002800004036159494D43007F4141410204081074
:1002900020004141417F04020102044040404040AF
:1002A000000307080020545478407F28444438381D
:1002B00044444428384444287F385454541800088F
:1002C0007E090218A4A49C787F0804047800447D69
:1002D00040002040403D007F1028440000417F4006
:1002E000007C047804787C0804047838444444385A
:1002F000FC1824241818242418FC7C08040408483A
:100300005454542404043F44243C4040207C1C208A
:1003100040201C3C4030403C44281028444C9090E5
:10032000907C4464544C440008364100000077003F
:1003300000004136080002010204023C2623263C4C
:100340001EA1A161123A4040207A385454555921D7
:1003500055557941225454784221555478402054BF
:100360005579400C1E52721239555555593954540D
:10037000545939555454580000457C410002457D7C
:10038000420001457C407D1211127DF0282528F0A5
:100390007C545545002054547C547C0A097F4932D2
:1003A000494949323A4444443A324A4848303A4149
:1003B00041217A3A42402078009DA0A07D3D4242F2
:1003C000423D3D4040403D3C24FF2424487E49437B
:1003D000662B2FFC2F2BFF0929F620C0887E0903EE
:1003E00020545479410000447D413048484A323815
:1003F0004040227A007A0A0A727D0D19317D262941
:10040000292F28262929292630484D402038080838
:10041000080808080808382F10C8ACBA2F1028346C
:10042000FA00007B000008142A142222142A14085F
:100430005500550055AA55AA55AAFF55FF55FF006E
:100440000000FF00101010FF00141414FF00101023
:10045000FF00FF1010F010F0141414FC001414F737
:1004600000FF0000FF00FF1414F404FC1414171024
:100470001F10101F101F1414141F00101010F00074
:100480000000001F101010101F10101010F01000AE
:100490000000FF101010101010101010FF100000BE
:1004A00000FF140000FF00FF00001F10170000FCF9
:1004B00004F414141710171414F404F40000FF00CB
:1004C000F714141414141414F700F7141414171454
:1004D00010101F101F141414F4141010F010F0005A
:1004E000001F101F0000001F14000000FC1400007B
:1004F000F010F01010FF10FF141414FF141010105F
:100500001F00000000F010FFFFFFFFFFF0F0F0F011
:10051000F0FFFFFF0000000000FFFF0F0F0F0F0FA5
:100520003844443844FC4A4A4A347E0202060602F1
:100530007E027E0263554941633844443C04407E58
:10054000201E2006027E020299A5E7A5991C2A49D1
:100550002A1C4C7201724C304A4D4D30304878485C
:1005600030BC625A463D3E494949007E0101017E48
:100570002A2A2A2A2A44445F444440514A4440409B
:10058000444A51400000FF0103E080FF00000808DA
:100590006B6B083612362436060F090F060000185A
:1005A000180000001010003040FF0101001F010181
:1005B0001E00191D1712003C3C3C3C0000000000CE
:1005C00000000000230026002900000000080002AF
:1005D000010000030407000000000000000000000C
:1005E0000000240027002A00DB40A4A62EAF200034
:1005F000A1C8D300408DAED580A801020408102008
:1006000040800102040810200102040810200000AC
:100610000000250028002B00040404040404040442
:10062000020202020202030303030303000060004C
:1006300000000000000000000000000000E00000DA
:10064000000000000000000000000001E0000000C9
:100650000000000000000000000001F000000000A9
:1006600000000000000000000003F0000000000097
:10067000000000000000000007F000000000000083
:100680000000000000000007F8000000000000006B
:100690000000000000000FF800000003C0007E0012
:1006A0000001E0007F0FF800000003C000FE000022
:1006B00001E000FFEFF800000003C000FE000001B1
:1006C000E000FFFFF800000003C000F00000000F92
:1006D000007FFE7FC0000003C000F00000000F009C
:1006E0003FFE7FF83FF1FBCFFCFEF3BC3DEFE01F88
:1006F000FE7FFF7FFBFFDFFEFEFFBC3DEFE01FC67E
:10070000FFFF7FFBFFDFFEFEFFBC3DEFE00FE3C717
:10071000FE787BC3DE1EF0FFBC3DEF0007FF87FCC9
:10072000787BC3DE1EF0F83C3DEF0001FFFFF000D8
:100730007BC3C01EF0F03C3DEF0001F37FE03FFBC8
:10074000C3CFFEF0F03C3DEF0003E33F807FFBC3EF
:10075000DFFEF0F03C3DEF0007E73C00787BC3DEB6
:100760001EF0F03C3DEF0007FFBE00787BC3DE1EAD
:10077000F0F03C3DEF0007FFFE00787BC3DE1EF08B
:10078000F03C3DEF000FFFFE007FFBFFDFFEF0F0CF
:100790003FFDEFE00FFFFF007FFBFFDFFEF0F03FCC
:1007A000FDEFE00FF9FF003E79F9CF9EF0F01F3D1D
:1007B000E7E01FF1FF000000000000000000000063
:1007C000001F80FF007FFFFFFFFFFFFFFFFFFFE035
:1007D0001C007F007FFFFFFFFEB46D888D18E000D6
:1007E000001F007FFFFFFFFE95AD7DB577E00000A5
:1007F0000F007FFFFFFFFEA5AD9D8D19E0000006F5
:10080000007FFFFFFFFEB5ADEDB57EE0000000000C
:1008100000018000000000000000000003800000D4
:100820000000000000000007C00000000000000001
:10083000000007C00000000000000000000FC00022
:1008400000000000000000001FE0000000000000A9
:100850000000001FE00000000000000000003FE07A
:100860000000000000000000003FF0000000000059
:10087000000000007FF0000000000000001FF87F73
:10088000F0000000000000003FFE7FF000000000CC
:100890000000003FFF7FF0000000000000001FFF8D
:1008A000FBE0000000000000000FFFF9FFC00000A7
:1008B000000000000FFFF9FFF80000000000000733
:1008C000FFF1FFFF00000000000003FC73FFFF804A
:1008D000000000000001FE3FFFFF8000000000005C
:1008E00000FF1E0FFF000000000000007FFE1FFC45
:1008F000000000000000003FFFFFF80000000000C3
:1009000000000FDFFFE0000000000000001F19FFE3
:10091000C0000000000000003F3CFF00000000009D
:100920000000007E7CF800000000000000007FFE58
:100930007C0000000000000000FFFFFC0000000041
:1009400000000000FFFFFE0000000000000000FFAC
:10095000FFFE0000000000000001FFEFFE000000AD
:100960000000000001FFCFFE0000000000000003B7
:10097000FF07FE0000000000000003FC07FE00006F
:10098000000000000003F003FE0000000000000073
:10099000018000FE000000000000000000007E005A
:1009A0000000000000000000003E00000000000009
:1009B000000000000C000000000000078000FC00A8
:1009C0000003C0000000078001FC000003C000001D
:1009D00000078001FC000003C0000000078001E068
:1009E0000000001E000000078001E00000001E0063
:1009F0007FE3F79FF9FDE7787BDFC0FFF7FFBFFDDF
:100A0000FDFF787BDFC0FFF7FFBFFDFDFF787BDFD9
:100A1000C0F0F787BC3DE1FF787BDE00F0F787BCD4
:100A20003DE1F0787BDE0000F787803DE1E0787BF8
:100A3000DE007FF7879FFDE1E0787BDE00FFF78730
:100A4000BFFDE1E0787BDE00F0F787BC3DE1E078B8
:100A50007BDE00F0F787BC3DE1E0787BDE00F0F75D
:100A600087BC3DE1E0787BDE00FFF7FFBFFDE1E002
:100A70007FFBDFC0FFF7FFBFFDE1E07FFBDFC07C56
:100A8000F3F39F3DE1E03E7BCFC00000000000009B
:100A90000000000000FFFFFFFFFFFFFFFFFFFFC0A0
:100AA000FFFFFFFFFD68DB111A31C0FFFFFFFFFDF5
:100AB0002B5AFB6AEFC0FFFFFFFFFD4B5B3B1A3376
:100AC000C0FFFFFFFFFD6B5BDB6AFDC02200FF2163
:100AD0000000CC20252511241FBECFEFD8E0DEBFBB
:100AE000CDBF12E0A0E0B1E0E6E2F3E502C0059080
:100AF0000D92AC33B107D9F724E0ACE3B2E001C00A
:100B00001D92AA36B207E1F715E0CAE6D5E004C0A7
:100B10002197FE010E946A27C936D107C9F70E94B2
:100B2000F6210C9486290C940000089596E0899F84
:100B3000D0011124AB55BC4F90967C936E935F9778
:100B400091E091969C939197E0911204F091130497
:100B500090911104992339F0309751F0811108C018
:100B60008091C1030994309719F05C968C91FACF6B
:100B70000895CF92DF92EF92FF920F931F9396E02A
:100B8000899FF0011124EB55FC4F11A2278D30A154
:100B90002130310551F178F02230310509F451C08E
:100BA0002330310509F452C01F910F91FF90EF904F
:100BB000DF90CF9008956623B9F361E070E00E9462
:100BC00096052FB7F8948091000390910103A091AE
:100BD0000203B09103032FBF8093FD039093FE03A4
:100BE000A093FF03B0930004DFCF9FB7F894C090A9
:100BF0000003D0900103E0900203F09003039FBF35
:100C00000091FD031091FE032091FF033091000439
:100C1000C01AD10AE20AF30A00910F0410911004DD
:100C200030E020E00C151D052E053F0550F462E074
:100C300070E01F910F91FF90EF90DF90CF900C9498
:100C400096056111B1CF63E070E0F3CF70E060E032
:100C5000F0CF08950895AF92BF92CF92DF92EF92B6
:100C6000FF920F931F93CF93DF936C017B018B0156
:100C7000040F151FEB015E01AE18BF08C017D107A6
:100C800059F06991D601ED91FC910190F081E02D30
:100C9000C6010995892B79F7C501DF91CF911F9185
:100CA0000F91FF90EF90DF90CF90BF90AF9008959D
:100CB000FC01538D448D252F30E0842F90E0821B62
:100CC000930B541710F0CF96089501970895FC01E7
:100CD000918D828D981761F0A28DAE0FBF2FB11D3F
:100CE0005D968C91928D9F5F9F73928F90E0089597
:100CF0008FEF9FEF0895FC01918D828D981731F051
:100D0000828DE80FF11D858D90E008958FEF9FEFA4
:100D10000895FC01918D228D892F90E0805C9F4F7A
:100D2000821B91098F739927089588E093E00E94B0
:100D3000890621E0892B09F420E0822F089580E0C4
:100D400090E0892B29F00E94950681110C940000F7
:100D50000895FC01A48DA80FB92FB11DA35ABF4F50
:100D60002C91848D90E001968F739927848FA689AA
:100D7000B7892C93A089B1898C91837080648C93FE
:100D8000938D848D981306C00288F389E02D8081AD
:100D90008F7D80830895EF92FF920F931F93CF93DF
:100DA000DF93EC0181E0888F9B8D8C8D98131AC0A6
:100DB000E889F989808185FF15C09FB7F894EE898D
:100DC000FF896083E889F9898081837080648083EA
:100DD0009FBF81E090E0DF91CF911F910F91FF9035
:100DE000EF900895F62E0B8D10E00F5F1F4F0F73DD
:100DF0001127E02E8C8D8E110CC00FB607FCFACF98
:100E0000E889F989808185FFF5CFCE010E94A90686
:100E1000F1CFEB8DEC0FFD2FF11DE35AFF4FF08268
:100E20009FB7F8940B8FEA89FB8980818062CFCFCE
:100E3000CF93DF93EC01888D8823B9F0AA89BB8911
:100E4000E889F9898C9185FD03C0808186FD0DC0FC
:100E50000FB607FCF7CF8C9185FFF2CF808185FF1D
:100E6000EDCFCE010E94A906E9CFDF91CF91089581
:100E7000833081F028F4813099F08230A9F0089510
:100E80008730A9F08830C9F08430B1F480918000B7
:100E90008F7D03C0809180008F77809380000895BC
:100EA00084B58F7784BD089584B58F7DFBCF809105
:100EB000B0008F778093B00008958091B0008F7D4F
:100EC000F9CFCF93DF93282F30E0F901E653FA4FA3
:100ED0008491F901E650FA4FD491F901E85EF94F97
:100EE000C491CC23A1F081110E943807EC2FF0E0CF
:100EF000EE0FFF1FE054FA4FA591B491EC91ED2352
:100F000081E090E009F480E0DF91CF91089580E0E6
:100F100090E0FACF1F93CF93DF93282F30E0F901B1
:100F2000E653FA4F8491F901E650FA4FD491F90152
:100F3000E85EF94FC491CC23A9F0162F81110E94CD
:100F40003807EC2FF0E0EE0FFF1FE25FF94FA5919D
:100F5000B4918FB7F894EC91111108C0D095DE23AD
:100F6000DC938FBFDF91CF911F910895DE2BF8CFD7
:100F7000CF93DF9390E0FC01E650FA4F2491885E16
:100F8000994FFC0184918823C9F090E0880F991F44
:100F9000FC01E252FA4FA591B491FC01E25FF94FD6
:100FA000C591D49161110DC09FB7F8948C91209593
:100FB00082238C938881282328839FBFDF91CF9140
:100FC0000895623051F49FB7F8943C91822F809538
:100FD00083238C93E8812E2BEFCF8FB7F894EC917D
:100FE0002E2B2C938FBFEACF0F931F93CF93C82F35
:100FF0008B0161E00E94B807012B39F460E08C2F6F
:10100000CF911F910F910C948A07EC2FF0E0E653DB
:10101000FA4FE491E33029F150F4E130D1F0E230BD
:1010200069F784B5806284BD81E088BD16C0E73071
:1010300021F1E83059F1E43009F7809180008062B5
:101040008093800081E090E090938B0080938A00F1
:1010500004C084B5806884BDE7BDCF911F910F9116
:1010600008958091800080688093800081E090E006
:101070009093890080938800F0CF8091B0008068C1
:101080008093B00081E08093B300E7CF8091B000FF
:1010900080628093B00081E08093B400DECF3FB7E0
:1010A000F8948091F5029091F602A091F702B09128
:1010B000F80226B5A89B05C02F3F19F00196A11D87
:1010C000B11D3FBFBA2FA92F982F8827BC01CD0192
:1010D000620F711D811D911D42E0660F771F881FF1
:1010E000991F4A95D1F708958F929F92AF92BF9220
:1010F000CF92DF92EF92FF924B015C010E944F086A
:101100006B017C010E944F086C197D098E099F09B3
:10111000683E734081059105A8F321E0821A910889
:10112000A108B10888EEC80E83E0D81EE11CF11CAE
:1011300081149104A104B10429F7FF90EF90DF908E
:10114000CF90BF90AF909F908F9008952091AA026A
:10115000260F3327331F21323105ECF42091CE02C4
:10116000FC0190E080E0243069F082E00895A091D5
:10117000AA022191AC0146575D4FA40FB52FB11DB6
:101180002C930196861798F38091AA02680F6093BA
:10119000AA0280E0089581E008951092CE0281E0D5
:1011A0008093D0021092CF0261E082E10E948A0710
:1011B00061E083E10E948A07E9EBF0E080818E7FA5
:1011C000808380818D7F808388E48093B80085E46C
:1011D0008093BC000895CF93DF9391E090938902B0
:1011E0008823B9F0C091B800D091BA008091BC00BA
:1011F0008A7B8093BC0060E082E10E948A0760E005
:1012000083E10E948A070E94CD08D093BA00C09360
:10121000B800DF91CF910895E091FF028091FE0226
:10122000E81730F4F0E0EC59FD4F808190E008952C
:101230008FEF9FEF08959091FF028091FE022FEFB4
:101240003FEF981748F4E92FF0E0EC59FD4F20816B
:1012500030E09F5F9093FF02C90108958091FE02E4
:101260009091FF02891B990B0895CF92DF92EF9224
:10127000FF920F931F93CF93DF937C01CB018A01E1
:1012800020910703222389F0EB016B01C40ED51EC8
:10129000CC15DD0569F06991D701ED91FC910190C4
:1012A000F081E02DC7010995F3CF642F0E94A608B5
:1012B000C801DF91CF911F910F91FF90EF90DF90C8
:1012C000CF900895CF93DF931F92CDB7DEB7698398
:1012D000209107032223F9F020910403203258F0D3
:1012E00021E030E0FC013383228390E080E00F9026
:1012F000DF91CF91089580910503E82FF0E0EC5B3A
:10130000FD4F998190838F5F809305038093040341
:1013100081E090E0ECCF61E0CE0101960E94A6084A
:10132000F7CFCF92DF92EF92FF920F931F93CF935D
:10133000DF93D091040381E0D13208F09CC0C091CA
:1013400006030E944F086B017C018091CE0281113F
:101350006CC082E08093CE0281E08093D0028FEF58
:101360008093CD021092F202D093F102A4E4B2E095
:10137000E1EDF2E080E0D8138DC01092F30280918D
:10138000F302CC0FC82BC093F3028091CF028130BF
:1013900009F084C01092CF020E944F086B017C01BB
:1013A0008091F3028093BB00809185029091860228
:1013B000A0918702B0918802892B8A2B8B2BA1F0F8
:1013C0000E944F08009185021091860220918702A9
:1013D000309188026C197D098E099F09061717073D
:1013E0002807390708F442C08091BC0083FDD8CF9C
:1013F00085EC8093BC000E944F086B017C018091BA
:10140000CE02823009F44CC08091CD028F3F09F4A6
:1014100069C08091CD02803209F466C08091CD020E
:10142000803309F463C084E026C0809185029091E6
:101430008602A0918702B0918802892B8A2B8B2B80
:1014400009F483CF0E944F08009185021091860213
:1014500020918702309188026C197D098E099F09BD
:10146000061717072807390708F06FCF8091840205
:101470000E94EB0885E0109205031092040310927D
:101480000703DF91CF911F910F91FF90EF90DF90B5
:10149000CF9008959D9191938F5F6DCF85EEA9CFE9
:1014A0008091850290918602A0918702B091880276
:1014B000892B8A2B8B2B09F4A2CF0E944F08009115
:1014C00085021091860220918702309188026C1962
:1014D0007D098E099F09061717072807390708F0A5
:1014E0008ECFC4CF80E0C7CF82E0C5CF83E0C3CF2B
:1014F0000895FC016370668B848195812681378114
:10150000613039F0633029F09187808733872287F3
:101510000895318720879387828708952F923F927D
:101520004F925F926F927F928F929F92AF92BF92F3
:10153000CF92DF92EF92FF920F931F93CF93DF939F
:10154000CDB7DEB76A970FB6F894DEBF0FBECDBF3A
:101550009A8F898F7A8369834A01D22E18870F83E5
:101560003701BC2CDC0159962D913C915A972115DD
:10157000310509F015C118968D919C91199768173E
:1015800079070CF0D7C11A968D919C91481759078D
:101590000CF0D0C14C2C512CB6E0CB9E600D711DCF
:1015A00011247C876B87161617060CF0C3C1EA2D31
:1015B000F0E0FA87E98793E0EE0FFF1F9A95E1F7D5
:1015C000F88BEF87CF01840F951F181619060CF0C2
:1015D000B1C1A98DBA8D58968C91811104C0BFEA12
:1015E000BD1508F4D394A98DBA8DED91FC91119796
:1015F0000284F385E02DCD010995B5E0DB9EC001A5
:101600001124E981FA81FC83EB83312C212C9C018C
:1016100020543F4F388F2F8B4A2D50E05E8B4D8BDF
:10162000EF89F88DE20DF31D44919E828D82D12CBD
:10163000C12C69817A81620D731D7A8B698B842F2D
:1016400090E09C8B8B8BE98DFA8DA081B18140FF5E
:1016500082C0F1E0BF126FC0AF126DC01C96ED9159
:10166000FC912F813885A4014C0D5D1D69897A8913
:10167000898D9A8D0995EB89FC89F595E7954E2F13
:101680005FEFC51AD50A6D817E818D899E89680FAD
:10169000791F7E836D8398E0C916D10481F6AFEF80
:1016A0002A1A3A0AEB81FC81E40DF51DFC83EB83D9
:1016B000F5E02F16310409F0B3CF2F8138852615B8
:1016C0003705B9F0A98DBA8DED91FC91B1E0BB124F
:1016D00057C0AB1255C069817A816B5F7F4F00881C
:1016E000F189E02D830128E030E0A401898D9A8DF5
:1016F0000995A98DBA8DED91FC9111970688F7890E
:10170000E02DCD016A960FB6F894DEBF0FBECDBFB7
:10171000DF91CF911F910F91FF90EF90DF90CF90CD
:10172000BF90AF909F908F907F906F905F904F9001
:101730003F902F9009941E96ED91FC91EF80F884D4
:1017400009851A8592014D815E816B817C81898D2D
:101750009A8D099590CF2F8138852615370509F484
:101760008ACF31E0B31207C0A31205C01C96ED91D9
:10177000FC91930178CF1E96ED91FC917301E0CF1F
:101780006B857C85641975090684F785E02D7301E6
:101790000F8518899201A401898D9A8D0995A9CF89
:1017A000F90134969491329745915491D91AB7E042
:1017B000DB9E400D511D1124F901259134913C8B84
:1017C0002B8BFA0125903490FA0132967490319661
:1017D0003491398B329664903196449041E04C15A7
:1017E00018F04A1508F07FC0662D062C000C770B08
:1017F0007C836B83842D042C000C990B9E838D833A
:10180000A98DBA8DED91FC9111970284F385E02D9D
:10181000CD010995512CD12CC12CEA2DF0E0FA878D
:10182000E9872B2D30E03C872B87A401440D511D07
:1018300047FC5A95588F4F8B69817A81660D711DCF
:1018400067FC7A957E876D877989C71608F051CF36
:101850002C2D30E04D815E81420F531FA985BA8542
:101860004A9FC0014B9F900D5A9F900D1124FC017F
:10187000E80DF91DF88BEF87852D612C4F89588D68
:10188000420F531F5E8B4D8B671408F050C04424E9
:101890004394480E877041F4C1010196EB89FC899D
:1018A000E20DF31DD4901C01D7FE19C0A98DBA8D8D
:1018B000ED91FC91662D70E0B1E0BB1219C0AB1246
:1018C00017C02D853E85620F731F0484F585E02DBA
:1018D0002F8138854D895E89898D9A8D0995DD0C1A
:1018E0006394842DD1CF1E821D821C821B8288CFDF
:1018F0004B815C81640F751FAB85BC856A9FC001FD
:101900006B9F900D7A9F900D112469817A81680FE9
:10191000791F0684F785E02DEF80F88409851A8504
:101920009D014F855889898D9A8D0995D8CF570C7F
:10193000C3948ACF6A960FB6F894DEBF0FBECDBFB0
:10194000DF91CF911F910F91FF90EF90DF90CF909B
:10195000BF90AF909F908F907F906F905F904F90CF
:101960003F902F9008958F929F92AF92CF92EF92D7
:10197000FF920F931F93CF93DF93EC01262F898D56
:101980009A8D009709F051C06A30D1F41D861C86EB
:101990008D8948E0849F900111248E859F85820F58
:1019A000931F9F878E8781E090E0DF91CF911F91F9
:1019B0000F91FF90EF90CF90AF909F908F900895F0
:1019C0006D3089F3CC88AD888F898823C1F08C85F0
:1019D0009D8536E0C39E800D911D11244885598553
:1019E0004817590764F44E855F851D861C8638E0CC
:1019F000A39EC0011124840F951F9F878E87EA88BC
:101A0000FB88088919894E855F856C857D85CE01A7
:101A10000E948E0A2C898C859D8546E0249F800D2E
:101A2000911D11249D878C87BECF6A3069F41D8675
:101A30001C86FC013896E4912D898E859F85E29F56
:101A4000800D911D1124ADCF6D3009F4ACCFFC0198
:101A500034963491631708F4A6CF3296E491E617D2
:101A600008F4A1CFFC01329685909490462F431B39
:101A7000342F47E0349F800C911C1124F4013296DE
:101A800034913196E4913323A9F1EE2399F1CC8876
:101A9000F4013596E491AD884F89442301F10E2E6F
:101AA000000CFF0BE30FF11DCE9EA001CF9E500D49
:101AB00011246C857D85460F571F688579856417CD
:101AC00075076CF44E855F851D861C86FC01389673
:101AD000E491AE9E400D511D11245F874E87EA8828
:101AE000FB88088919894E855F856C857D85CE01C7
:101AF0000E948E0AF4013496E4912C898C859D8590
:101B0000E29F800D911D11248DCF6F927F928F9255
:101B10009F92AF92BF92CF92DF92EF92FF920F937C
:101B20001F93CF93DF93EC016B015A0139014801F8
:101B3000E881F9810284F385E02D0995E881F98136
:101B40000288F389E02D87019301A501B601CE013A
:101B50000995A501480D591D41505109E881F981A8
:101B60000288F389E02D9301B601CE010995E88141
:101B7000F9810088F189E02D9401A501B601CE011B
:101B80000995C60CD71CB60161507109E881F9812D
:101B90000088F189E02D9401A501CE010995E88125
:101BA000F9810688F789E02DCE01DF91CF911F9151
:101BB0000F91FF90EF90DF90CF90BF90AF909F90EC
:101BC0008F907F906F9009946F927F928F929F92E7
:101BD000AF92BF92CF92DF92EF92FF920F931F933B
:101BE000CF93DF935C01EB016A0149013801870162
:101BF000DC01ED91FC916217730719F56416750607
:101C00002CF0962D872D3A01C92ED82E9601261933
:101C100037092F5F3F4F048CF58DE02DA301BE01E6
:101C2000C5010995DF91CF911F910F91FF90EF9022
:101C3000DF90CF90BF90AF909F908F907F906F90EC
:101C400008954615570591F42617370724F0892D76
:101C50004B01C22FD82F9E01281939092F5F3F4F02
:101C6000068CF78DE02DA601B401DACF0284F3854E
:101C7000E02D0995D501ED91FC910488F589E02DC1
:101C800083019401A601BE01C5010995D501ED911D
:101C9000FC910688F789E02DC501DF91CF911F9156
:101CA0000F91FF90EF90DF90CF90BF90AF909F90FB
:101CB0008F907F906F900994EF92FF920F931F93F4
:101CC000DC011A960D911C911B9718962D913C9151
:101CD0001997ED91FC9100A0F1A1E02D7B0150E05E
:101CE00040E070E060E009951F910F91FF90EF9048
:101CF00008954F925F926F927F928F929F92AF92D0
:101D0000BF92CF92DF92EF92FF920F931F93CF93E8
:101D1000DF936C012B015A0139014801DC01ED917F
:101D2000FC910284F385E02D0995E201640C751C99
:101D3000D601ED91FC91C615D7055CF40088F189B8
:101D4000E02D87019401A501BE01C60109952196E8
:101D5000EFCF0688F789E02DC601DF91CF911F9163
:101D60000F91FF90EF90DF90CF90BF90AF909F903A
:101D70008F907F906F905F904F9009948F929F9279
:101D8000AF92BF92CF92DF92EF92FF920F931F9389
:101D9000CF93DF93EC015B014A016901E881F9818E
:101DA0000284F385E02D099595012C0D3D1D2150F0
:101DB0003109E881F9810488F589E02D78018401F1
:101DC000A401B501CE010995E881F9810688F7895A
:101DD000E02DCE01DF91CF911F910F91FF90EF90F9
:101DE000DF90CF90BF90AF909F908F9009948F928B
:101DF0009F92AF92BF92CF92DF92EF92FF920F939A
:101E00001F93CF93DF93EC015B014A0169017801D5
:101E1000E881F9810284F385E02D0995C80CD91C6D
:101E2000860101501109E881F9810488F589E02DC6
:101E30009501A401B501CE010995E881F9810688D3
:101E4000F789E02DCE01DF91CF911F910F91FF9087
:101E5000EF90DF90CF90BF90AF909F908F900994BC
:101E6000EF92FF920F931F93DC01ED91FC9100A084
:101E7000F1A1E02D09951F910F91FF90EF9008952A
:101E80000F931F93DC01ED91FC91068CF78DE02DF3
:101E900009951F910F9108950F931F93DC01ED9108
:101EA000FC91048CF58DE02D09951F910F910895FB
:101EB000DC01ED91FC910084F185E02D09943F92C5
:101EC0004F925F926F927F928F929F92AF92BF924A
:101ED000CF92DF92EF92FF920F931F93CF93DF93F6
:101EE0005C017B014A016901390187E0680E711CC0
:101EF00093E0759467949A95E1F72B01400E511E7B
:101F000010E000E0312CD0E0C0E0CE0187709927CE
:101F1000330C892B59F4FE0183E0F595E7958A95FA
:101F2000E1F7E00FF11FE80DF91D349037FE0AC00C
:101F300021E030E0A701B5016C0F7D1F86E294E03F
:101F40000E94580F2196CC16DD06F9F68FEFE81A9D
:101F5000F80A060D171DE414F504A9F6DF91CF91D8
:101F60001F910F91FF90EF90DF90CF90BF90AF90B7
:101F70009F908F907F906F905F904F903F900895CB
:101F80002F923F924F925F926F927F928F929F9289
:101F9000AF92BF92CF92DF92EF92FF920F931F9377
:101FA000CF93DF9300D000D000D0CDB7DEB73C0197
:101FB0006A013E832D83FC82EB825801A41AB50A84
:101FC000B7FE03C0B194A194B1088D809E80861A9B
:101FD000970A97FE03C09194819491088A149B04F8
:101FE0005CF0902F812F0D811E819D838E839C2D0F
:101FF0008D2D6B01692F782F0C151D055CF09D81CF
:102000008E817E836D83692F782F902F812F86019B
:10201000C92ED82E1601201A310A2B012D813E819E
:10202000421A530A57FE03C051944194510871015A
:1020300037FE03C03FEFE31AF30AF594E7948D816E
:102040009E81861797075CF5A1E0B0E0BA83A9836B
:10205000C016D1064CF1D301ED91FC910484F585B5
:10206000E02D2B813C81A8016D817E818A149B0427
:102070001CF04D815E81B801C3010995E418F50893
:10208000F7FE0AC02D813E8189819A81280F391F70
:102090003E832D83E20CF31C0F5F1F4FD9CF2FEF30
:1020A0003FEF3A832983D4CF26960FB6F894DEBF4C
:1020B0000FBECDBFDF91CF911F910F91FF90EF9099
:1020C000DF90CF90BF90AF909F908F907F906F9058
:1020D0005F904F903F902F900895EF92FF920F9353
:1020E0001F93CF93DF93EC01EC80FD806E157F058D
:1020F0000CF070C057FF04C0240F351F50E040E0C3
:102100008E819F81FA01E20FF31F8E179F071CF447
:102110009C01241B350B121613060CF05BC0922F8A
:10212000842F8695869586958E9DD0018F9DB00DC6
:1021300011246A0F7B1FAF8DB8A1A60FB71F477080
:1021400049F188E0841B482F682F70E0FB01E854B8
:10215000FF4FE491281708F063C0621B71092FEF4D
:1021600030E002C0359527956A95E2F7E223013009
:10217000110539F0B0F10230110561F58C91E827B5
:1021800002C08C91E82BEC93941720F12C813D81B7
:10219000A20FB31FE92FE41BE83078F002301105DD
:1021A00021F58E2F9C9190959C932C813D81A20FBF
:1021B000B31F88508830B0F7E770EE2359F0F0E095
:1021C000E055FF4FE49101301105F9F010F10230B4
:1021D000110519F1DF91CF911F910F91FF90EF90B1
:1021E0000895E0958C91E823CECF81E0011511058B
:1021F00009F480E081959E2F8C932C813D81A20F64
:10220000B31F98509830C0F7D7CF8C91E82BEC9340
:10221000E1CFE0958C91E823FACF8C91E827F7CFB6
:102220000130110509F4ADCFE0F20230110509F4D7
:10223000A5CFAE0DBF1DAECF0F931F93CF93DF93EE
:1022400077FF04C0260F371F70E060E0DC011496B2
:10225000CD91DC91FB01E20FF31FCE17DF071CF4D9
:102260009E01261B370B121613064CF5FA0157FD7B
:102270003796A3E0F595E795AA95E1F7EC9FD00195
:10228000ED9FB00DFC9FB00D11246A0F7B1FDC0188
:102290005F96ED91FC91E60FF71F4770552781E09F
:1022A00090E001C0880F4A95EAF7482F01301105E8
:1022B00059F0A8F02E0F3F1F02301105E1F0DF9119
:1022C000CF911F910F9108952E0F3F1FE217F30733
:1022D000B1F38191DF011197842B8C93F7CF809517
:1022E0002E0F3F1FE217F30751F39191DF01119772
:1022F00098239C93F7CFE217F30709F38191DF014D
:10230000119784278C93F7CF0F931F93FA01DC0169
:1023100056964C9156974230E9F04330A1F1413046
:1023200061F514964D915C91DA01AE1BBF0BFD0176
:10233000E21BF30B77FD0BC0DC0116964D915C910F
:102340006417750724F4AB01BF010E941C111F9193
:102350000F91089514964D915C91DA01A61BB70B6D
:10236000BD0161507109DC0116964D915C91DA0155
:10237000AE1BBF0BFD01E21BF30B77FDE8CFAF01F6
:102380000E946D10E4CF16964D915C91DA01A61B68
:10239000B70BBD0161507109CDCF0F931F93FA01A7
:1023A000DC0156964C9156974230A9F0433091F19A
:1023B000413019F514964D915C91DA01AE1BBF0BBB
:1023C000FD013197F7FD04C0AB01BF010E946D1004
:1023D0001F910F91089514964D915C91DA01A61BFF
:1023E000B70BBD01DC0116964D915C91DA01AE1B75
:1023F000BF0BFD013197621B730BF7FDE9CFDC01C9
:1024000016964D915C91E417F50714F7AF010E9401
:102410001C11DECF16964D915C91DA01A61BB70B0D
:10242000BD01621B730BCECFFC0177FD64C08085BC
:102430009185681779070CF05EC057FD5CC08285F6
:102440009385481759070CF056C086898230B1F041
:10245000833029F1813041F484819581841B950B6F
:10246000AB01BC01615071092130310509F108F45B
:1024700043C02230310509F463C0089584819581F9
:10248000DC01A61BB70BBD016150710986819781E4
:10249000DC01A41BB50BAD0141505109E5CF86818C
:1024A0009781861B970BBA01AC0141505109DCCFD3
:1024B000CA0157FD0796A3E095958795AA95E1F780
:1024C000A481B5818A9F90018B9F300D9A9F300D1A
:1024D0001124620F731F078CF0A1E02DE60FF71F88
:1024E0004770552721E030E001C0220F4A95EAF7F6
:1024F0008081822B80830895CA0157FD079633E0BF
:10250000959587953A95E1F7A481B5818A9F9001C9
:102510008B9F300D9A9F300D1124620F731F078C13
:10252000F0A1E02DE60FF71F4770552781E090E0FE
:1025300001C0880F4A95EAF7809590818923DACF08
:10254000CA0157FD079623E0959587952A95E1F7EF
:10255000A481B5818A9F90018B9F300D9A9F300D89
:102560001124620F731F078CF0A1E02DE60FF71FF7
:102570004770552721E030E001C0220F4A95EAF765
:1025800080818227B7CF08958EBD00000DB407FE6D
:10259000FDCF8EB50895EF92FF920F931F93CF93C7
:1025A000DF937C01C62F80914304909144040097EF
:1025B00009F459C02091470431E030930703209378
:1025C00006031092050310920403DC01ED91FC91C7
:1025D0000190F081E02D60E009958701EE24E394FD
:1025E000F12CD1E0C1508091430490914404CF3F3D
:1025F00091F1B0E2EB16F104D8F00E9491098091BC
:1026000043049091440420914704D09307032093FE
:1026100006031092050310920403DC01ED91FC9176
:102620000190F081E02D60E00995EE24E394F12C17
:102630008091430490914404F8016491DC01ED9190
:10264000FC910190F081E02D0995BFEFEB1AFB0A98
:102650000F5F1F4FC7CFDF91CF911F910F91FF9059
:10266000EF900C949109E0915304F09154049081FF
:10267000809159048095892380838701C15008F493
:1026800038C0F80184912091410430914204232BF9
:1026900029F00E94C4120F5F1F4FF0CF28E030E0F6
:1026A00040E8E0914F04F091500490915704582F66
:1026B0005423D9F05081952B9083E0915104F091EF
:1026C0005204908150915804952B9083E0915104CD
:1026D000F0915204508190915804909595239083E5
:1026E000469521503109E9F6D6CF50819095952332
:1026F000E3CFDF91CF911F910F91FF90EF9008955D
:102700001F93CF93DF93EC018D8D9E8D009721F168
:10271000162F29A131E0309307032093060310926E
:10272000050310920403DC01ED91FC910190F0810E
:10273000E02D60E009958D8D9E8DDC01ED91FC9181
:102740000190F081E02D612F09958D8D9E8DDF9197
:10275000CF911F910C949109ADA5BEA59C918BA919
:10276000809589238C938B8D9C8D892B31F0862FBE
:10277000DF91CF911F910C94C41228E030E080E8E3
:10278000A9A5BAA599A9462F4823C1F04C91942B2D
:102790009C93ABA5BCA59C914AA9942B9C93ABA5FB
:1027A000BCA54C919AA9909594239C938695215011
:1027B000310931F7DF91CF911F9108954C91909598
:1027C0009423E6CF8CBD9DBD0895DF92EF92FF92DA
:1027D0000F931F93CF93DF93809143049091440410
:1027E000892B09F498C020915B0430915C044091DE
:1027F0005D0450915E0460E074E284EF90E00E941A
:10280000932620513109410951095695479537952D
:1028100027952093B80065E08CEC9AE00E94CB12DB
:1028200060912A04615086E294E00E948013209116
:102830002C0430912D04C901079697FD079633E0CB
:10284000959587953A95E1F720912A0430912B04CC
:10285000829F8001839F100D929F100D1124C091C3
:102860004504D091460480914304909144040C0F98
:102870001D1F009709F48FC02091470431E0309369
:102880000703209306031092050310920403DC0152
:10289000ED91FC910190F081E02D60E40995EE242A
:1028A000E394F12CDD24D39480914304909144046B
:1028B0000C171D0709F446C0B0E2EB16F104D8F07E
:1028C0000E9491098091430490914404209147040F
:1028D000D09207032093060310920503109204037D
:1028E000DC01ED91FC910190F081E02D60E409950F
:1028F000EE24E394F12C8091430490914404699177
:10290000DC01ED91FC910190F081E02D0995BFEF84
:10291000EB1AFB0AC9CF8091410490914204892BA4
:1029200031F080916404909165040E94E213E0917B
:102930005504F0915604908180915A048095892322
:10294000808369CF0E94910980914304909144044F
:10295000892B09F461C020915F043091600440919B
:1029600061045091620460E074E284EF90E00E94A0
:1029700093262051310941095109569547953795BC
:1029800027952093B800DF91CF911F910F91FF9071
:10299000EF90DF900895E0915304F091540480810A
:1029A00090915904892B80830C171D0769F2899136
:1029B0002091410430914204232B19F00E94C4124B
:1029C000F3CF28E030E040E8E0914F04F09150046C
:1029D00090915704582F5423D9F05081952B908310
:1029E000E0915104F0915204908150915804952B3C
:1029F0009083E0915104F0915204508190915804D9
:102A0000909595239083469521503109E9F6CCCFD6
:102A1000508190959523E3CFE0915504F0915604B1
:102A2000808190915A04892B8083ADCF1F93CF93DF
:102A3000DF93EC01162F8D8D9E8D892BB1F12DA981
:102A40003EA94FA958AD60E074E284EF90E00E9487
:102A500093262051310941095109569547953795DB
:102A600027952093B80066EA111167EACE010E940B
:102A700080138D8D9E8D892B41F129AD3AAD4BADE3
:102A80005CAD60E074E284EF90E00E9493262051F8
:102A90003109410951095695479537952795209356
:102AA000B800DF91CF911F9108958B8D9C8D892B5C
:102AB00021F08EAD9FAD0E94E213EFA5F8A99081A1
:102AC0008CA9809589238083CECFEFA5F8A980813A
:102AD0009CA9892B8083E5CF089590E080E008953C
:102AE000862F0C946107862F642F0C948A07862FFB
:102AF000642F0C94B807CF93DF93EC018881998100
:102B0000DC01ED91FC910190F081E02D09952A8185
:102B10003B81820F931F9B838A83DF91CF9108951E
:102B2000CF93DF93EC0188819981DC01ED91FC91D9
:102B30000280F381E02D09952A813B81820F931F4A
:102B40009B838A83DF91CF9108958F929F92AF925A
:102B5000BF92CF92DF92EF92FF920F931F93CF938A
:102B6000DF93CDB7DEB766970FB6F894DEBF0FBE22
:102B7000CDBF6C018E01095E1F4F78018AE0882E5F
:102B8000912CA12CB12CCB01BA01A50194010E947A
:102B90009326942F852F605DF80162938F01A90120
:102BA000692F782F411551056105710561F7A7015E
:102BB0004E1B5F0BBF01C6010E94901566960FB6B3
:102BC000F894DEBF0FBECDBFDF91CF911F910F9163
:102BD000FF90EF90DF90CF90BF90AF909F908F903D
:102BE0000895EF92FF920F931F93CF93DF93EC0121
:102BF0007B0162E20E947B158701F80161918F01E0
:102C0000662391F0E4E7F1E0F280FF2049F032968C
:102C100081816813F9CF6CE5CE010E947B156F2D81
:102C2000CE010E947B15E9CF62E2CE01DF91CF9108
:102C30001F910F91FF90EF900C947B15FC010E9665
:102C400091838083938382838C599F4F9583848360
:102C500097838683108615860895FC01258122239B
:102C600039F0F8E02F0290011124820F931F08958C
:102C700090E080E00895FB0101900020E9F7319792
:102C8000AF01461B570BDC01ED91FC910280F381F3
:102C9000E02D09948F929F92AF92BF92EF92FF9294
:102CA0000F931F93CF93DF93CDB7DEB7A1970FB6E6
:102CB000F894DEBF0FBECDBF7C01FA01CB0119A293
:102CC000223008F42AE08E010F5D1F4F822E912CD6
:102CD000B12CA12CBF01A50194010E949326F901FA
:102CE000CA016A300CF5605DD8016E938D01232B0B
:102CF000242B252B79F790E080E0109721F0BD017F
:102D0000C7010E943B16A1960FB6F894DEBF0FBE16
:102D1000CDBFDF91CF911F910F91FF90EF90BF90AA
:102D2000AF909F908F900895695CDECFCF92DF9235
:102D3000EF92FF920F931F93CF93DF93EC016A0101
:102D40007B01E881F9810190F081E02D6DE2099528
:102D50008C0144275527BA014C195D096E097F097A
:102D60002AE0CE010E944A16800F911FDF91CF9179
:102D70001F910F91FF90EF90DF90CF90089565E83D
:102D800071E00C943B16CF93DF93BC0186E294E094
:102D90000E943B16EC0186E294E00E94BF168C0F65
:102DA0009D1FDF91CF9108950F931F93CF93DF93D2
:102DB000EC01AB01770F660B770B77FF0DC00E941C
:102DC00096168C01CE010E94BF16800F911FDF91D5
:102DD000CF911F910F9108952AE00E944A16F1CFDA
:102DE000FB0101900020E9F73197AF01461B570B1B
:102DF0000C9490152F923F924F925F926F927F9218
:102E00008F929F92AF92BF92CF92DF92EF92FF92FA
:102E10000F931F93CF93DF93CDB7DEB76C970FB6A9
:102E2000F894DEBF0FBECDBF8C011B01DC011496F0
:102E30008C9114978F77863009F474C278F48230BD
:102E4000B0F0843008F04CC212964D915C9113970B
:102E50006D917C91C1010E94901526C28C3069F160
:102E600060F4883009F459C28A3009F43FC268E836
:102E700071E0C1010E94F016E5C1803209F4ECC195
:102E80008034A9F76BE5C1010E947B15F801008130
:102E900011810115110509F4DAC1B101C8010E94BF
:102EA000FA16C8010E942D168C01892B09F4CFC196
:102EB0006CE2C1010E947B15ECCFF801C080D1808B
:102EC000E280F380A7019601C701B6010E94382570
:102ED0008111CDCF20E030E0A901C701B6010E94E9
:102EE0003825882379F0A7019601C701B6010E9411
:102EF000B6269B01AC01C701B6010E943825882384
:102F000009F4B5CF20E030E0A901C701B6010E9465
:102F1000382587FF08C06DE2C1010E947B15F7FAD2
:102F2000F094F7F8F09420E836E948E15BE4C70153
:102F3000B6010E94512787FD81C074E1A72EB12CF4
:102F400000E210E0188E1F8AF501E856FF4F259128
:102F5000359145915491C701B6010E94512787FDD3
:102F600013C0F501E859FF4F2591359145915491D2
:102F7000C701B6010E949E256B017C012F89388D07
:102F8000200F311F388F2F8B1595079534E0A31A2A
:102F9000B1088CEFA8168FEFB806B1F655245A94F5
:102FA00020E030E0A901C701B6010E9451271816A0
:102FB0000CF04BC02CEA35EC47E257E3C701B601F1
:102FC0000E94382518160CF440C0A52DB4E0AB02C1
:102FD000C0011124912C812CFC01E058FF4F3F01CE
:102FE0009C0128563F4F59013FEF531671F1F301F1
:102FF000E80DF91D6591759185919491A701960150
:103000000E94512718169CF4F501E80DF91D259131
:10301000359145915491C701B6010E949E256B01DF
:103020007C018F89988D801B910B988F8F8B1595C4
:1030300007955A9494E0891A9108D6CF00E210E0DF
:1030400055E0552E188E1F8AABCFC701B6010E94DE
:1030500022274B015C012B013C0106E080E492E455
:10306000AFE0B0E0898F9A8FAB8FBC8F102F0150EB
:103070009AE04916510461047104C8F0698D7A8D93
:103080008B8D9C8D2AE030E040E050E00E9493263A
:10309000298F3A8F4B8F5C8FC301B2012AE030E059
:1030A00040E050E00E94932629013A01DFCFC5019C
:1030B000B4010E943D259B01AC01C701B6010E94ED
:1030C000B5266B017C01698D7A8D8B8D9C8D0E945C
:1030D0003D259B01AC01C701B6010E949E252B0135
:1030E0003C010E9422276B017C010E943D259B012F
:1030F000AC01C301B2010E94B5269B01AC010E9444
:10310000B6260E942227C60ED71EE81EF91E898DFC
:103110009A8DAB8DBC8DC816D906EA06FB06D8F091
:103120009FEF891A990AA90AB90AAF89B88DAB2B02
:1031300039F1BAE08B169104A104B10408F1EF89CA
:10314000F88D3196F88FEF8BC12CD12C7601812C24
:10315000912C540183942AE0422E512C612C712C25
:10316000C701B601A30192010E949326672B682B29
:10317000692B51F4111644F469017A011150F0CF12
:10318000C12CD12C7601E7CFB501A401C1010E9469
:10319000A515112371F14E01F1E18F0E911C012F44
:1031A00054019AE0492E512C612C712C015068F089
:1031B000C701B601A30192010E949326605DD4016C
:1031C0006E934D0169017A01F1CF812F90E0BC012E
:1031D00060957095F501E81BF90B31978EE28083BD
:1031E00044275527461B570B6A0D7B1DC1010E94C2
:1031F0009015EF89F88DEF2B29F165E6C1010E944A
:103200007B150F89188D17FF07C06DE2C1010E9461
:103210007B15119501951109FE0177969F018AE0B2
:10322000E82EF12CC801B7010E945627805D8293D9
:103230008B01672BB9F7A9014E1B5F0BBF01C101C1
:103240000E949015D10112968D919C9130C06DE530
:10325000C1010E947B15F6CF6BE7C1010E947B156F
:10326000F8010081118101151105D1F0D8011696E0
:103270006D917C91C1010E94F1156AE3C1010E9428
:103280007B15B101C8010E94FA16C8010E942D16D3
:103290008C01892B29F06CE2C1010E947B15E3CFE0
:1032A0006DE7C1010E947B15F101828193816C96CB
:1032B0000FB6F894DEBF0FBECDBFDF91CF911F9147
:1032C0000F91FF90EF90DF90CF90BF90AF909F90C5
:1032D0008F907F906F905F904F903F902F900895C8
:1032E0006D917C91C1010E94F115DECFCD90DD90F2
:1032F000ED90FC90B701A601F7FE0BC06DE2C10195
:103300000E947B1544275527BA014C195D096E09A7
:103310007F09C1010E94A515C7CF4D915D916D91A7
:103320007C91F7CF8C916DE871E0811102C062E968
:1033300071E0C1010E94F016B7CFCF93DF9300D0A8
:1033400000D0CDB7DEB728E033E03A8329831C8272
:103350001B82BE016F5F7F4F09960E94FA160F9085
:103360000F900F900F90DF91CF91089520912C0432
:1033700030912D04C901079697FD079623E0959596
:1033800087952A95E1F720912A0430912B04829F9A
:10339000A001839F500D929F500D112470E060E0BA
:1033A00080914504909146040C9460290E94522912
:1033B000FC0180819181009711F00C940C280895F4
:1033C0000F931F93CF93DF93EC018881998100972E
:1033D00059F02A813B812617370730F081E0DF91D1
:1033E000CF911F910F9108958B016F5F7F4F0E94C6
:1033F0009528009759F0998388831B830A832C8131
:103400003D81232B59F7FC011082E8CF80E0E7CF04
:10341000EF92FF920F931F93CF93DF93EC017B0109
:103420008A01BA010E94E01928813981811114C0F2
:103430002115310519F0C9010E940C281982188242
:103440001D821C821B821A82CE01DF91CF911F91B7
:103450000F91FF90EF9008951D830C83B701C90170
:103460000E947029F1CF85ED8093BC008091850288
:1034700090918602A0918702B09188020796A11DC3
:10348000B11D23E0B695A795979587952A95D1F715
:103490002091BC0024FD03C01092CE0208954091FB
:1034A0008502509186026091870270918802452BB7
:1034B000462B472B69F30097A105B10541F025E3A1
:1034C0002A95F1F700000197A109B109E1CF809198
:1034D00084020C94EB08CF92DF92EF92FF920F934D
:1034E0001F93CF93DF93FC018481982F9F7739F44A
:1034F0008078806284831182108213821282848198
:1035000085FD0CC0D0E0C0E0CE01DF91CF911F91CE
:103510000F91FF90EF90DF90CF90089561157105A6
:1035200089F37A016B018F01C081D1812097C1F1AC
:103530006E817F816C157D0539F36115710529F068
:10354000C6010E946729892BF9F2CE010E942D162F
:10355000EC01ECCFE9012897F701D583C4832097CC
:1035600089F2D8011296ED91FC911397309791F062
:10357000CE018E1B9F0B23E0959587952A95E1F749
:1035800085831396DC93CE9312971D821C82DF8273
:10359000CE82BACFF801D183C083D383C283F5CF63
:1035A000D70114962D913C91159712968D919C916F
:1035B00008962817390770F681E0D70118968C9382
:1035C000A3CF4F925F926F927F928F929F92AF9212
:1035D000BF92CF92DF92EF92FF920F931F93CF9300
:1035E000DF93CDB7DEB7C857D1090FB6F894DEBF69
:1035F0000FBECDBF81E0809311048FB7F894409146
:1036000000035091010360910203709103038FBF87
:103610008091010490910204A0910304B0910404EC
:10362000481B590B6A0B7B0B80910D0490910E0483
:10363000B0E0A0E084179507A607B70708F0DEC240
:1036400010E080910B04181760F4E0910704F091EA
:103650000804E10FF11D62E080810E94B8071F5F3E
:10366000F0CF912C412C512C3201439480910C04C9
:10367000981608F061C0E92CF12CE0910904F09152
:103680000A04EE0DFF1D61E080810E94B807E09101
:103690000904F0910A04EE0DFF1D60E080810E9494
:1036A0008A07D301C201092C04C0880F991FAA1FE1
:1036B000BB1F0A94D2F75C016C01C094D094812C9A
:1036C00080910B04881608F5082D10E0E09107049E
:1036D000F0910804E00FF11F80810E9461070C5FE8
:1036E0001F4F000F111FF801EB55FC4F892B41F4C0
:1036F000808191818A299B29918380838394E0CF63
:10370000808191818C219D21F7CFE0910904F09176
:103710000A04EE0DFF1D61E080810E948A078091FE
:10372000090490910A04E80EF91E60E0F701808117
:103730000E94B80793949ACF25EAC22E23E0D22E96
:1037400081EE93E086012FEF3FEFF801478D50A106
:10375000452B21F4148E368F258F11A20A5F1F4F3F
:103760008017910791F7B12C96E0992E80910B0468
:10377000B81608F052C0A12CEB2CF12CEE0CFF1C5B
:10378000C70183559C4F7C0120910C04A21608F0C0
:1037900042C0F701608171810A2C02C0769567955D
:1037A0000A94E2F7B29E900111242A0D311DE5EA38
:1037B000F3E080E0458D568D2417350709F429C3C1
:1037C0008F5F36968A30B1F760FF23C0E5EAF3E0F9
:1037D00090E080E0448D411117C0E0910504F09124
:1037E0000604E20FF31F4081989EF001999EF00DB0
:1037F0001124EB55FC4F448F368F258F10A2178E66
:1038000061E00E94B90505C0019636968A3091059F
:1038100009F7A394B9CFB394A9CF80E0F60191A1A1
:103820009111892FF6E0CF0ED11CC016D106B1F749
:103830009FB7F894409100035091010360910203F7
:10384000709103039FBF409301045093020460935F
:10385000030470930404882309F4D0C18091C60343
:10386000882309F4CBC1E090C403F090C50381E044
:10387000E816F10409F0C2C1809040029090410224
:10388000A0904202B09043021091C1031092000137
:103890001111BAC120E030E040E551E460914002EE
:1038A0007091410280914202909143020E9438251A
:1038B00081119DC01A3209F09AC0CE0101960E9472
:1038C0001E1600910001AE014F5F5F4F6CE971E081
:1038D000CE010A960E946B1AFC01892B29F0948173
:1038E0009078966094830083CE0101960E949D1982
:1038F00088E093E00E94BF166091000170E08DE0C7
:103900000E94F407E0903E02F0903F02EFEFEE1AC3
:10391000FE0AF0923F02E0923E020E94B61901E0D8
:1039200000933A0400933B0481E090E090933904C3
:1039300080933804909337048093360410923304B4
:10394000109232048AE090E090933504809334041E
:1039500086EA91E00E94C31610923304109232045A
:103960008EE190E0909335048093340488EB91E0ED
:103970000E94C316109233041092320488E290E041
:103980009093350480933404B70186E294E00E945A
:10399000D4160E94E5136DE070E088E093E00E9489
:1039A000D4160093000161E08DE00E948A076DE06B
:1039B00070E088E093E00E94D41668EE73E080E047
:1039C00090E00E94740850E040E064E871E084E117
:1039D00094E00E94081A1092400210924102109244
:1039E00042021092430210923D0210923C0220E0EB
:1039F00030E040E551E460914002709141028091D5
:103A00004202909143020E943825811137C013323F
:103A1000A9F50E94B61981E080933A0480933B0493
:103A200081E090E0909339048093380490933704B8
:103A30008093360410923304109232048AE090E0AE
:103A4000909335048093340481EC91E00E94C31676
:103A50000E94E51350E040E064E871E084E194E006
:103A60000E94081A109240021092410210924202E3
:103A70001092430210923D0210923C0220E030E08E
:103A800040E551E460914002709141028091420210
:103A9000909143020E943825811198C080913C0288
:103AA00090913D02892B09F091C01A8219821C82E3
:103AB0001B821E821D826091140470911504611591
:103AC000710541F04091180450911904CE010196FE
:103AD0000E94081A81E08093000161E08DE00E945D
:103AE0008A072AE04DE050E060E070E088E093E073
:103AF0000E944A1689819A81E5969FAF8EAFE5971D
:103B00008B819C81E7969FAF8EAFE7978D819E81D9
:103B1000E9969FAF8EAFE9971A8219821C821B82A9
:103B20001E821D82CE018D589F4F0E94D819CE0152
:103B300001960E94D819CE0101960E941E1600918E
:103B40000001AE014F5F5F4F68E971E0CE010A9658
:103B50000E946B1AFC01892B89F0948190789A60FD
:103B60009483412F110F550B40535109052E000C22
:103B7000660B770B4083518362837383AE014F5F83
:103B80005F4F6CE971E0CE010A960E946B1AFC014E
:103B9000892B29F094819078966094830083CE01DC
:103BA00001960E949D1988E093E00E94BF166091E3
:103BB000000170E08DE00E94F40780913C0290913A
:103BC0003D02019690933D0280933C02C858DF4F1E
:103BD0000FB6F894DEBF0FBECDBFDF91CF911F911E
:103BE0000F91FF90EF90DF90CF90BF90AF909F909C
:103BF0008F907F906F905F904F9008951092110476
:103C00001092000110E046CE20E030E040E551E4A3
:103C1000C501B4010E94382587FF93C0133209F40F
:103C200095C01A3209F436CE19831A82E09018042E
:103C3000F09019049FEFE91AF90AB70184E194E0C2
:103C40000E94E019882399F0209114043091150402
:103C50008091180490911904BE016F5F7F4F820F0D
:103C6000931F0E947029F0921904E0921804409169
:103C7000180450911904609114047091150488E09F
:103C800093E00E942B0688E093E00E94BF16CE01CD
:103C900001960E941E1600910001AE014F5F5F4F1A
:103CA00068E971E0CE010A960E946B1AFC01892B2B
:103CB00091F0948190789A609483412F012E000CAA
:103CC000550B40535109052E000C660B770B4083B2
:103CD000518362837383AE014F5F5F4F6CE971E084
:103CE000CE010A960E946B1AFC01892B29F094815F
:103CF0009078966094830083CE0101960E949D196E
:103D000088E093E00E94BF166091000170E08DE0B2
:103D10000E94F40720E030E040E85FE36091400259
:103D20007091410280914202909143020E94B62616
:103D30006093400270934102809342029093430249
:103D4000A9CD133209F0A6CD13E2A4CD20E030E0D6
:103D500040E85FE3C501B4010E94B52660934002CC
:103D60007093410280934202909343020E94B619DD
:103D700081E080933A0480933B04F0923904E0920E
:103D80003804F0923704E092360410923304109213
:103D900032048AE090E0909335048093340480EA02
:103DA00091E00E94C3160E94E51360914002709159
:103DB000410280914202909143020E942227409149
:103DC0001804509119046417750708F0BDCF2091AD
:103DD0001404309115044150510950931904409333
:103DE0001804461B570BFB013196E20FF31FC90164
:103DF000860F971FBF010E947729E0911404F0916C
:103E000015048091180490911904E80FF91F10828D
:103E100041CD6170F6CC1F920F920FB60F92112414
:103E20002F933F934F935F936F937F938F939F93C2
:103E3000AF93BF93EF93FF9388E093E00E94A906AE
:103E4000FF91EF91BF91AF919F918F917F916F9172
:103E50005F914F913F912F910F900FBE0F901F9048
:103E600018951F920F920FB60F9211242F938F93D4
:103E70009F93EF93FF93E0911803F09119038081D2
:103E8000E0911E03F0911F0382FD1BC09081809181
:103E900021038F5F8F7320912203821741F0E091FD
:103EA0002103F0E0E85FFC4F958F80932103FF91A1
:103EB000EF919F918F912F910F900FBE0F901F90B8
:103EC00018958081F4CF1F920F920FB60F92112494
:103ED0002F933F938F939F93AF93BF938091000352
:103EE00090910103A0910203B09103033091F40279
:103EF00023E0230F2D3758F50196A11DB11D209306
:103F0000F4028093000390930103A0930203B09303
:103F100003038091F5029091F602A091F702B0910F
:103F2000F8020196A11DB11D8093F5029093F6024F
:103F3000A093F702B093F802BF91AF919F918F9138
:103F40003F912F910F900FBE0F901F90189526E86C
:103F5000230F0296A11DB11DD2CF1F920F920FB653
:103F60000F9211242F933F934F935F936F937F93FF
:103F70008F939F93AF93BF93EF93FF938091B9007B
:103F8000887F803609F44AC0F0F5883209F4A7C06A
:103F900018F5803109F49BC0B8F4882309F4F9C0FE
:103FA000883009F494C0FF91EF91BF91AF919F9138
:103FB0008F917F916F915F914F913F912F910F90D2
:103FC0000FBE0F901F901895883109F488C0803279
:103FD00051F78093CD0214C0803409F49DC040F4A1
:103FE0008033B9F38833F9F68093CD0285ECB0C005
:103FF000803509F485C0883509F496C0883499F66F
:104000000E94331AD0CF883909F48CC038F588372C
:1040100029F050F4883611F0803729F683E0809338
:10402000CE021092CC0257C0883809F47BC0803988
:1040300019F0803809F0B7CF8091CC02803208F0B7
:1040400071C0E091CC0281E08E0F8093CC02809110
:10405000BB00F0E0E455FD4F80833DC0803B39F06C
:10406000E0F4803A09F479C0883A09F09CCF84E002
:104070008093CE021092AB021092AA02E091FC0251
:10408000F091FD0209958091AA0281110FC081E093
:104090008093AA0210928A0209C0803C09F4A6CF3C
:1040A000883C09F4A3CF883B09F07DCFE091AB02B7
:1040B00081E08E0F8093AB02F0E0E657FD4F8081E8
:1040C0008093BB009091AB028091AA0229C080919D
:1040D000F3028093BB0085EC8093BC0064CF909189
:1040E000F2028091F102981758F5E091F20281E016
:1040F0008E0F8093F202F0E0EF52FD4F8081E9CF06
:10410000E091F20281E08E0F8093F2028091BB0079
:10411000F0E0EF52FD4F80839091F2028091F10226
:104120009817C8F285E8D8CFE091F20281E08E0FAF
:104130008093F2028091BB00F0E0EF52FD4F80834C
:104140008091D00281115CCF81E08093CF0284EA1C
:104150008093BC001092CE0226CF85EC8093BC00E9
:104160001092CE028091CC02803230F4E091CC02E9
:10417000F0E0E455FD4F10826091CC0270E0E091D8
:10418000FA02F091FB028CEA92E009951092CC02BF
:104190000ACF1092CD0234CF10920B0310920A0373
:1041A00088EE93E0A0E0B0E080930C0390930D03C1
:1041B000A0930E03B0930F032EE131E03093090377
:1041C0002093080325EC30E030931503209314036B
:1041D00024EC30E0309317032093160320EC30E0FA
:1041E000309319032093180321EC30E030931B0324
:1041F00020931A0322EC30E030931D0320931C031C
:1042000026EC30E030931F0320931E03109221030D
:1042100010922203109223031092240310921D0483
:1042200010921C0480931E0490931F04A0932004FA
:10423000B093210480E391E090931B0480931A04CF
:10424000109229041092280420E830E030932B04C7
:1042500020932A0480E490E090932D0480932C0412
:1042600030932F0420932E049093310480933004D4
:1042700010923C04109233041092320410923504D0
:104280001092340481E080933B0480933A042FEF32
:104290003FEF309339042093380430933704209350
:1042A000360480933D0410923E0410924004109214
:1042B0003F048CE491E090932704809326041092AD
:1042C0004204109241048AE194E090934404809364
:1042D000430410924604109245048FEF80934A04E1
:1042E00080934B0480934C0480934D0480934E0440
:1042F00080E89AE1A6E0B0E080935B0490935C04D0
:10430000A0935D04B0935E0480EA96E8A1E0B0E07B
:1043100080935F0490936004A0936104B09362045F
:1043200080E5809364041092650410921504109245
:10433000140410921704109216041092190410928B
:10434000180450E040E064E871E084E194E00E94E9
:10435000081A1092A7031092AB031092AA031092AE
:10436000AC0382E491E09093A6038093A503E1EC73
:10437000F3E08DEF93E0108214821382158236965B
:104380008E179F07C1F784E091E090930804809313
:10439000070481E091E090930A048093090484E08B
:1043A00080930B0483E080930C0488E091E0909369
:1043B0000604809305048AE090E090930E048093B5
:1043C0000D0484EF91E09093100480930F041092F9
:1043D000130410921204109201041092020410921D
:1043E000030410920404109211040895789484B583
:1043F000826084BD84B5816084BD85B5826085BDE1
:1044000085B5816085BD80916E00816080936E006E
:104410001092810080918100826080938100809160
:104420008100816080938100809180008160809311
:1044300080008091B10084608093B1008091B000D1
:1044400081608093B00080917A00846080937A00CC
:1044500080917A00826080937A0080917A008160F6
:1044600080937A0080917A00806880937A0010921D
:10447000C100E0911803F091190382E08083E0917C
:104480001403F09115031082E0911603F0911703C5
:104490008FEC808310922003E0911C03F0911D03A8
:1044A00086E08083E0911A03F0911B038081806194
:1044B0008083E0911A03F0911B03808188608083E0
:1044C000E0911A03F0911B03808180688083E09162
:1044D0001A03F0911B0380818F7D808380914504B6
:1044E00090914604892B11F10E94B61920912C0459
:1044F00030912D0480912A0490912B0421323105B2
:104500000CF0ADC0B9016052710977FF02C06F5F56
:104510007F4F759567958357910997FD019600E246
:1045200010E023E730E04CE256E0ACC020912C04D0
:1045300030912D04C901079697FD0796B3E0959534
:104540008795BA95E1F720912A0430912B04AC01AC
:10455000429FC001439F900D529F900D11240E94D5
:1045600070279093460480934504892B09F0BCCFB3
:104570000E94B61911E010933A0410933B04C1E075
:10458000D0E0D0933904C0933804D0933704C0935B
:10459000360410923304109232048AE0E82EF12C93
:1045A000F0923504E092340480EE91E00E94C3164C
:1045B0000E94E51368EE73E080E090E00E947408CA
:1045C0000E94B61910933A0410933B04D093390417
:1045D000C0933804D0933704C09336041092330448
:1045E00010923204F0923504E092340488EF91E0A6
:1045F0000E94C31610923304109232048EE190E0B0
:1046000090933504809334048BE092E00E94C316AB
:1046100010923304109232048DE290E090933504AE
:104620008093340489E192E00E94C3160E94E5134E
:1046300068EE73E080E090E00E94740861E08DE035
:104640000E94B807C0E0D0E00E94E11A2097E1F391
:104650000E9495068823C1F30E940000F5CFB9019E
:104660006054710977FF02C06F5F7F4F7595679542
:104670008255910997FD019600E410E022E530E0B3
:104680004CE058E0959587950E945F0F82E08093FB
:1046900048048091430490914404892B09F4DFC0BD
:1046A0008CE3809347041092FF021092FE02109256
:1046B0000503109204030E94CD0889E296E09093CE
:1046C000FD028093FC028AE296E09093FB028093C5
:1046D000FA0280914E0487FD1EC061E00E94B80777
:1046E00061E080914E040E948A0761E070E080E002
:1046F00090E00E94740860E080914E040E948A0756
:104700006AE070E080E090E00E94740861E08091CF
:104710004E040E948A078091430490914404892B9F
:1047200009F45CC120915B0430915C0440915D040C
:1047300050915E0460E074E284EF90E00E94932662
:1047400020513109410951095695479537952795CB
:104750002093B80064E086EF95E00E94CB12609150
:104760002C04615086E294E00E94801364E082EFA2
:1047700095E00E94CB128091480464E1813009F4F5
:1047800060E186E294E00E94801364E08EEE95E0A2
:104790000E94CB128FE88093630480912A04909149
:1047A0002B048038910509F032C180912C0490913E
:1047B0002D048034910509F03AC18091480481307C
:1047C00009F423C18FEC80936304C2E16AED86E2B1
:1047D00094E00E9480136C2F86E294E00E94801384
:1047E00061E886E294E00E9480136091630486E2AF
:1047F00094E00E94801369ED86E294E00E948013A9
:104800008091480461EF813009F462E286E294E02D
:104810000E94801366E088EE95E00E94CB128091A2
:10482000430490914404892B09F405C120915F044D
:1048300030916004409161045091620460E074E240
:1048400084EF90E00E9493262051310941095109DB
:1048500056954795379527952093B80089CE61E006
:1048600080914C040E94B80761E080914D040E9441
:10487000B80780914C04082E000C990BFC01E85EEF
:10488000F94FE491F0E0EE0FFF1FE25FF94F259141
:1048900034913093540420935304FC01E650FA4FB2
:1048A000E491E093590480914D04082E000C990B7B
:1048B000FC01E85EF94FE491F0E0EE0FFF1FE25FCC
:1048C000F94FA591B491B0935604A0935504FC01FF
:1048D000E650FA4FE491E0935A048C91E82BEC9364
:1048E0008091410490914204892B09F434C0CFB7E0
:1048F000F8948091F902811127C0E2E2F6E08491F8
:10490000E4E0F6E09491E82FF0E0EE0FFF1FE252B2
:10491000FA4FA591B491EC91E92321F461E08AE08A
:104920000E948A0761E08AE00E94B8078CB5806126
:104930008CBD8CB580648CBD61E08DE00E94B807B1
:1049400061E08BE00E94B8078091F9028F5F80934D
:10495000F902CFBFBECE61E080914A040E94B80741
:1049600061E080914B040E94B80780914A04082EB0
:10497000000C990BFC01E85EF94FE491F0E0EE0FBA
:10498000FF1FE25FF94F259134913093500420933B
:104990004F04FC01E650FA4FE491E09357048091F4
:1049A0004B04082E000C990BFC01E85EF94FE491D2
:1049B000F0E0EE0FFF1FE25FF94FA591B491B093C5
:1049C0005204A0935104FC01E650FA4FE491E093A5
:1049D00058048C91E095E823EC937BCE80914104C0
:1049E00090914204892B31F0809164049091650488
:1049F0000E94E213E0915504F09156049081809159
:104A00005A04809589238083A5CE8FE9DCCE803639
:104A1000910569F480912C0490912D04409739F40C
:104A200080914804813029F08FEA80936304C2E0CA
:104A3000CDCE80E1FACFE0915504F091560480810B
:104A400090915A04892B808393CD84E194E00E9455
:104A5000D8198CE491E090932704809326048091E8
:104A6000450490914604009711F00C940C28089589
:104A70000E947A2508F481E00895E89409C097FB24
:104A80003EF490958095709561957F4F8F4F9F4F25
:104A90009923A9F0F92F96E9BB279395F695879569
:104AA00077956795B795F111F8CFFAF4BB0F11F42C
:104AB00060FF1BC06F5F7F4F8F4F9F4F16C08823D3
:104AC00011F096E911C0772321F09EE8872F762F09
:104AD00005C0662371F096E8862F70E060E02AF04A
:104AE0009A95660F771F881FDAF7880F9695879536
:104AF00097F90895990F0008550FAA0BE0E8FEEF0B
:104B000016161706E807F907C0F012161306E40791
:104B1000F50798F0621B730B840B950B39F40A268A
:104B200061F0232B242B252B21F408950A2609F468
:104B3000A140A6958FEF811D811D08950E94B1258A
:104B40000C9422260E94142638F00E941B2620F086
:104B5000952311F00C940B260C94112611240C941F
:104B600056260E94332670F3959FC1F3950F50E0AF
:104B7000551F629FF001729FBB27F00DB11D639F0F
:104B8000AA27F00DB11DAA1F649F6627B00DA11DB5
:104B9000661F829F2227B00DA11D621F739FB00D5B
:104BA000A11D621F839FA00D611D221F749F3327CB
:104BB000A00D611D231F849F600D211D822F762F64
:104BC0006A2F11249F5750409AF0F1F088234AF041
:104BD000EE0FFF1FBB1F661F771F881F91505040AD
:104BE000A9F79E3F510580F00C940B260C94562695
:104BF0005F3FE4F3983ED4F3869577956795B79534
:104C0000F795E7959F5FC1F7FE2B880F911D96954D
:104C1000879597F9089597F99F6780E870E060E0BD
:104C200008959FEF80EC089500240A941616170645
:104C300018060906089500240A941216130614068D
:104C400005060895092E0394000C11F4882352F0F0
:104C5000BB0F40F4BF2B11F460FF04C06F5F7F4FA8
:104C60008F4F9F4F089557FD9058440F551F59F08F
:104C70005F3F71F04795880F97FB991F61F09F3F49
:104C800079F087950895121613061406551FF2CF72
:104C90004695F1DF08C0161617061806991FF1CFC2
:104CA00086957105610508940895E894BB276627E9
:104CB0007727CB0197F908952F923F924F925F92F9
:104CC0006F927F928F929F92AF92BF92CF92DF921C
:104CD000EF92FF920F931F93CF93DF93CDB7DEB781
:104CE000CA1BDB0B0FB6F894DEBF0FBECDBF099415
:104CF0002A88398848885F846E847D848C849B846C
:104D0000AA84B984C884DF80EE80FD800C811B8179
:104D1000AA81B981CE0FD11D0FB6F894DEBF0FBEA8
:104D2000CDBFED010895A1E21A2EAA1BBB1BFD0108
:104D30000DC0AA1FBB1FEE1FFF1FA217B307E4077A
:104D4000F50720F0A21BB30BE40BF50B661F771FD2
:104D5000881F991F1A9469F76095709580959095B2
:104D60009B01AC01BD01CF0108955058BB27AA2774
:104D70000E94CD260C9422260E94142638F00E9410
:104D80001B2620F039F49F3F19F426F40C941126C9
:104D90000EF4E095E7FB0C940B26E92F0E943326D6
:104DA00058F3BA17620773078407950720F079F460
:104DB000A6F50C9455260EF4E0950B2EBA2FA02DD7
:104DC0000B01B90190010C01CA01A0011124FF27B8
:104DD000591B99F0593F50F4503E68F11A16F040B3
:104DE000A22F232F342F4427585FF3CF46953795B2
:104DF0002795A795F0405395C9F77EF41F16BA0B77
:104E0000620B730B840BBAF09150A1F0FF0FBB1F24
:104E1000661F771F881FC2F70EC0BA0F621F731F6D
:104E2000841F48F4879577956795B795F7959E3FCA
:104E300008F0B0CF9395880F08F09927EE0F97955B
:104E4000879508950E943B2688F09F5798F0B92FC8
:104E50009927B751B0F0E1F0660F771F881F991FAF
:104E60001AF0BA95C9F714C0B13091F00E945526D6
:104E7000B1E008950C945526672F782F8827B85FE6
:104E800039F0B93FCCF3869577956795B395D9F707
:104E90003EF490958095709561957F4F8F4F9F4F11
:104EA00008950E947A2508F48FEF0895AA1BBB1B72
:104EB00051E107C0AA1FBB1FA617B70710F0A61B1A
:104EC000B70B881F991F5A95A9F780959095BC013B
:104ED000CD010895EE0FFF1F0590F491E02D099488
:104EE0000F931F93CF93DF938230910510F482E0EC
:104EF00090E0E0916804F091690430E020E0B0E0D7
:104F0000A0E0309799F42115310509F44AC0281B17
:104F1000390B24303105D8F58A819B8161157105E3
:104F200089F1FB0193838283FE0111C0408151818D
:104F30000281138148175907E0F04817590799F47F
:104F4000109761F012960C93129713961C93329659
:104F5000CF01DF91CF911F910F91089500936804C5
:104F600010936904F4CF2115310551F0421753070E
:104F700038F0A901DB019A01BD01DF01F801C1CFC1
:104F8000EF01F9CF9093690480936804CDCFFE01BF
:104F9000E20FF31F819391932250310939832883C3
:104FA000D7CF2091660430916704232B41F42091E0
:104FB0001601309117013093670420936604209105
:104FC0001401309115012115310541F42DB73EB77B
:104FD0004091180150911901241B350BE091660492
:104FE000F0916704E217F307A0F42E1B3F0B28177C
:104FF000390778F0AC014E5F5F4F2417350748F052
:105000004E0F5F1F50936704409366048193919302
:105010009FCFF0E0E0E09CCFCF93DF930097E9F0E3
:10502000FC01329713821282A0916804B091690446
:10503000ED0130E020E01097A1F420813181820F52
:10504000931F20916604309167042817390709F0EF
:1050500061C0F0936704E0936604DF91CF910895F7
:10506000EA01CE17DF07E8F54A815B819E01411511
:105070005105B1F7E901FB83EA8349915991C40FC6
:10508000D51FEC17FD0761F4808191810296840F92
:10509000951FE90199838883828193819B838A8309
:1050A000F0E0E0E012968D919C9113970097B9F58E
:1050B0002D913C911197CD010296820F931F209163
:1050C0006604309167042817390739F6309751F58F
:1050D0001092690410926804B0936704A093660468
:1050E000BCCFD383C28340815181840F951FC817E1
:1050F000D90761F44E5F5F4F88819981480F591F2E
:10510000518340838A819B8193838283211531055A
:1051100009F0B0CFF0936904E09368049ECFFD01DD
:10512000DC01C0CF13821282D7CFB0E0A0E0EBE960
:10513000F8E20C945E268C01009751F4CB010E949A
:1051400070278C01C801CDB7DEB7E0E10C947A2658
:10515000FC01E60FF71F9C0122503109E217F3070B
:1051600008F49DC0D901CD91DC911197C617D707DE
:1051700098F0C530D10530F3CE0104978617970714
:1051800008F3C61BD70B2297C193D1936D937C93E1
:10519000CF010E940C28D6CF5B01AC1ABD0A4C018E
:1051A0008C0E9D1EA0916804B0916904512C412C75
:1051B000F12CE12C109731F58091660490916704F1
:1051C0008815990509F05CC04616570608F058C0C6
:1051D0008091140190911501009741F48DB79EB70D
:1051E0004091180150911901841B950BE817F9079C
:1051F00008F055C0F0936704E0936604F9017183E9
:105200006083A0CF8D919C91119712966C9012970C
:1052100013967C901397A815B90559F56C0142E0D7
:10522000C40ED11CCA14DB0420F1AC014A195B097D
:10523000DA011296159780F062827382518340835F
:10524000D9016D937C93E114F10471F0D7011396A9
:10525000FC93EE93129776CF22968C0F9D1FF90147
:1052600091838083F301EFCFF0936904E0936804A6
:1052700069CF4816590608F42C017D01D3019ACF55
:10528000CB010E9470277C01009749F0AE01B80164
:105290000E945729C8010E940C28870153CF10E0B3
:1052A00000E050CF81E090E0F8940C948629FB0157
:1052B000DC0102C001900D9241505040D8F7089592
:1052C000DC0101C06D9341505040E0F70895FB01AF
:1052D000DC018D91019080190110D9F3990B08958B
:1052E000FB01DC0101900D920020E1F70895FB0124
:1052F000DC014150504048F001900D920020C9F768
:1053000001C01D9241505040E0F7089515E0CAE6F3
:10531000D5E004C0FE010E946A272196CB36D10752
:06532000C9F7F894FFCF6D
:1053260001060708020304053332313635343938AD
:105336003723302A00006A04800000000000CB06F4
:105346002B0658061807890667067B06000000002C
:10535600620935096D1595052E091B090C09000012
:10536600000077157315701500000000B30C2B06AE
:105376006D156C1514129505580F300F4C0F400F14
:10538600C00F9505790A16158411CD11790E5C0E9C
:10539600E40D850D2F2F22225C5C6208660C6E0AD6
:1053A600720D7409000D0A006E756C6C00747275CE
:1053B600650066616C7365004B6579004C65640039
:1053C600566F6C7461004C6976726F20636164611C
:1053D60073747261646F21004573746F7175653AF9
:1053E600004953424E2061706167616E646F2C64A0
:1053F6006967697465206E6F76616D656E746500A8
:105406004F6C6120736F75206120626F7820646F26
:1054160020426F6F6B6679005061726120646F6124
:105426007220756D206C6976726F00496E736972B1
:1054360061206F204953424E00456C6520666963C2
:1054460061206E6120747261736569726120646F98
:0C54560020736575206C6976726F000091
:00000001FF
